:020000022000DC
:10600000207F00208DB10200A55F040061B1020075
:1060100061B1020061B1020061B102000000000044
:10602000000000000000000000000000D5AE0200EB
:1060300061B10200000000008DAE020061B10200FB
:1060400051AF020079B2030051AF020051AF02001C
:1060500051AF020051AF020051AF020051AF020038
:1060600051AF020051AF020051AF020051AF020028
:1060700051AF020051AF020051AF020051AF020018
:1060800051AF020051AF020051AF020051AF020008
:1060900051AF020051AF020051AF020051AF0200F8
:1060A00051AF020051AF020051AF020051AF0200E8
:1060B00051AF020051AF020051AF020051AF0200D8
:1060C00051AF020051AF020051AF020051AF0200C8
:1060D00051AF020051AF020051AF020051AF0200B8
:1060E00051AF020051AF020051AF020051AF0200A8
:1060F00051AF020051AF020051AF020051AF020098
:1061000053B94AB9002908BF00281CBF4FF0FF311E
:106110004FF0FF3000F00CB8ADF1080C6DE904CE83
:1061200000F008F8DDF804E0DDE9022304B0704770
:10613000704700BF2DE9F04F07468C460846099E80
:1061400015463C461946002B40F0C6808242B2FA02
:1061500082F746D94FB1C7F1200E24FA0EFE00FA9D
:1061600007F3BD404EEA030CBC404FEA15481FFA46
:1061700085FEBCFBF8F9220C08FB19C309FB0EFADB
:1061800042EA03439A4528D9EB1809F1FF3004D2BB
:106190009A4502D9A9F102002B44A3EB0A03A4B249
:1061A000B3FBF8F208FB123302FB0EFE44EA034491
:1061B000A64514D92C1902F1FF3303D2A64501D903
:1061C000931E2C44A4EB0E0443EA00401EB1FC4095
:1061D000002334607360BDE8F08F4846DDE7134666
:1061E000F0E702B9FFDE87BB831A01214FEA154EA3
:1061F000AAB2B3FBFEFC200C0EFB1C330CFB02F816
:1062000040EA0343984563D9EB180CF1FF3004D200
:10621000984502D9ACF102002B44A3EB0803A4B2C9
:10622000B3FBFEFC0EFB1C330CFB02F244EA0344FE
:10623000A2424FD92C190CF1FF3304D2A24202D949
:10624000ACF102032C44A41ABEE7C7F1200C20FADB
:106250000CF800FA07F324FA0CFCBD404CEA0302E8
:106260004FEA154EABB2B8FBFEFC110C0EFB1C80C6
:106270000CFB03F941EA0040814504FA07F423D9F5
:1062800028180CF1FF3104D2814502D9ACF102018A
:106290002844A0EB090092B2B0FBFEFC0EFB1C00F0
:1062A0000CFB03F842EA004398450FD9EB180CF1B8
:1062B000FF3204D2984502D9ACF102022B44A3EB81
:1062C000080342EA014191E76146E2E76246F6E7E8
:1062D0006046A2E76346B6E7834205D90EB1C6E938
:1062E00000700021084676E7B3FA83F181B9834252
:1062F00001D3BA420AD8BC1A60EB030301209C46C2
:10630000002E68D0C6E9004C002164E70846F7E794
:10631000C1F1200C8B4022FA0CF41C4302FA01F567
:1063200000FA01F327FA0CF220FA0CFB4FEA1449A9
:106330001343BBFBF9F81FFA84FE09FB18BB1A0CC8
:1063400008FB0EFA42EA0B42924507FA01F73ED9E2
:10635000A21808F1FF3004D2924502D9A8F1020038
:106360002244A2EB0A029BB2B2FBF9F809FB182205
:1063700008FB0EFE43EA024296452AD9A21808F10C
:10638000FF3304D2964502D9A8F10203224443EA1E
:106390000040A0FB0593A2EB0E029A42CE4698461F
:1063A00002D306D14F4504D2B9EB050E63EB0408C6
:1063B000013886B1B7EB0E0362EB080707FA0CFC55
:1063C000CB404CEA0303CF40C6E900379CE7404688
:1063D000C7E74346DBE73146FDE60000000000006A
:1063E00073B53F4DD5F85431996811F0010121D1B1
:1063F00001AA40F6034005F0FFFC044600286CD1DA
:10640000019B9B681B7893B9BFF35B8F2B4653F8B6
:10641000CC2FBFF35B8F02F00502BFF35B8F53E815
:10642000001F43E800200028F9D1BFF35B8F0198DB
:1064300017F0D4FE01AA002141F2030005F0DCFCB4
:106440000446002849D1019B264899680822013159
:106450001FF067FE019817F0C1FE214601AA41F224
:10646000010005F0C9FC0446002836D10198836874
:106470005A7885F86820D9789A7842EA0122A5F8F6
:106480006A201A7985F86920197ADA7942EA0122B4
:10649000A5F86C205A799B7942EA0323A5F86E305F
:1064A00017F09CFE214601AA41F2020005F0A4FC6F
:1064B000044690B9019B0C489968402201311FF0B5
:1064C00030FE09481FF0E1FE019817F087FE95F8AD
:1064D00074305A060AD46FF01204204602B070BD20
:1064E000000000207000002078000020214601AA52
:1064F00042F2030005F080FC04460028EDD1019B28
:10650000B9489968082201311FF00BFE019817F075
:1065100065FE214601AA42F2020005F06DFC044628
:106520000028DAD1019B9B68B3F80120A5F8FC2074
:1065300091B221B1DA78AD48114623F0F6FC01980A
:1065400017F04CFE95F8746016F0200600F02181DB
:1065500095F894301B0712D501AA002142F21C00C5
:1065600005F04AFC04460028B7D101988368D3F8A7
:106570000120D3F80530C5E9362317F02FFE95F832
:10658000D0309E0623D50DF10201684620F0EBF8CD
:1065900004460028A1D1042142F2240005F0D0FBDA
:1065A0000646002800F0FC800421083022F075FD2A
:1065B000BDF800300380BDF80230438022463146EA
:1065C00042F2240005F018FC0446002885D195F815
:1065D000D0305C0610D501AA002142F22A0005F055
:1065E0000BFC044600287FF478AF019883685B7841
:1065F00085F8183117F0F2FD082142F2010005F08C
:106600009FFB0446002800F0CB800821084422F0BC
:1066100044FD95F8D01011F0400F024640F20223DD
:1066200008BF032388074CBF43F02C0043F00C0045
:106630008B0695F8D13048BF40F0400013F0090FA9
:1066400095F89A3018BF40F4006003F00603CE07B7
:1066500048BF40F01000062B08BF40F4C070002176
:106660001FF064FF2146002242F2010005F0C4FB46
:10667000044600287FF431AF95F87430B5F8FC106B
:10668000980600F1A280D9B901AA41F2050005F0EF
:10669000B3FB044600287FF420AFB5F8FC3063B9A3
:1066A000019B9B685A78997842EA0122A5F8FC2060
:1066B0009A884E48114623F038FC019817F08EFD59
:1066C000082140F6014005F03BFB0446002867D056
:1066D0000821084422F0E1FC95F8D030D9070246A1
:1066E00079D53FA1D1E900011FF020FF214600220A
:1066F00040F6014005F080FB044600287FF4EDAE33
:10670000014601AA4FF6014005F076FB044648BB5E
:10671000019817F063FD214601AA4FF6024005F0EB
:106720006BFB0446F0B9019B3148996802220131A4
:106730001FF0F7FC019817F051FD95F8B9305B0791
:1067400010D501AA21464FF6034005F055FB48B984
:10675000019B28489968012211441FF0E2FC01982E
:1067600017F03CFD20F06BFA044600287FF4B5AE2C
:1067700007F00AFA044600287FF4AFAEEB79002B4D
:106780003FF4ABAE04211C481FF04FFE05F012FE93
:10679000A3E6022140F66D4005F0D2FA044610B996
:1067A0006FF0680499E60221083022F076FC01239C
:1067B000037046702146324640F66D4005F01CFBE2
:1067C000044600283FF4C4AE87E600297FF478AF82
:1067D0006FF0040481E609484FF0005184E700BFE0
:1067E0009088000200800020D000002000010020DE
:1067F000B9000020B8000020CC0000201088000262
:106800002DE9F041D0E90B35866A5C193034A64297
:106810008846174618D81C4DA3FB050118A3D3E9D9
:106820000023FFF76DFCA41B20F07F40C8F8000098
:1068300013A3D3E90023A4FB0501FFF761FC20F0BB
:106840007F403860BDE8F0810F4C0DA3D3E90023F1
:10685000A6FB0401FFF754FC05F1300120F07F4056
:10686000C8F8000006A3D3E90023A1FB0401FFF749
:1068700047FC20F07F403860BDE8F081AFF3008036
:106880008D49FD1A0700000000CA9A3B0000000075
:106890002DE9F04F724C91B094F86A50002849D01D
:1068A00015F0010540F0CC8094F82500FF2300F09E
:1068B000030084F8263014F083F994F86A0047073F
:1068C00029D494F8292094F8353004EB820204EBA3
:1068D0008303D76AD3F8389087B1614839460EF000
:1068E000C3FC3B785E0605D506210AF049F800286E
:1068F00000F00C825A4849460EF0B6FC3B7813F083
:106900000E0F2CD1236A002B00F0B6800C252846F0
:1069100011B0BDE8F08F2A4604F16B01C0F3C0004E
:1069200014F0B4FAFF2884F82600CAD0284614F0E0
:1069300061F9C6E715F00105E9D0236A53B193F870
:10694000202042F0020283F82020236A93F82030AE
:10695000DB07DBD411B0BDE8F04F0EF09DB994F821
:1069600024300121C3F342030CA88DF830300AF023
:1069700093F9002869D099F80110024638460EF0C4
:106980002FFA3849B4F8689031230026A360A0FBA1
:10699000010131A3D3E90023C4E9056626706660CE
:1069A000E660FFF7ADFB20610BF086FA8046B9F197
:1069B000000F07D13E7806F00F06A6F10106B6FAE1
:1069C00086F6760994F82400236966F3000010F037
:1069D000010684F8240040F06981234A2348049387
:1069E00003F24713A9FB000106940296136091235A
:1069F00003FB09111E4B07931E4B05934FF6FF73C4
:106A000009924FF0020903930EAF13A3D3E90023B9
:106A1000CDF838900897FFF773FB4346CDE9006047
:106A20004A46304603210BF025F939460DF094FB18
:106A300058B994F86A3043F0010384F86A3066E785
:106A40000025284611B0BDE8F08F236A002B3FF4E3
:106A50005DAF0EF0DFF859E78D49FD1A0700000021
:106A60009843002000CA9A3B10440020002AE78483
:106A70005D360300514E03000DF0B8FA824600283F
:106A800000F04C810DF0BEFA8346002800F04381EF
:106A90000FF0E0FA0646002800F03A814FF6FF7347
:106AA000406F338506F11C030B93002800F03881FA
:106AB00006F1680206F1640109F06EFFB6F8603075
:106AC000994923F4EF6323F0070343F4887343F0F9
:106AD0000103A6F8603096F8393003F03F0363F005
:106AE0007F0386F8393096F87A3023F0070386F86A
:106AF0007A3096F83C3023F0070386F83C3096F85D
:106B0000D6304FF0000868F3000386F8D63006222E
:106B10004FF01B13C6E91631A6F8C020C6E912884B
:106B2000C6F87480A6F87880A6F82E80C6F8308063
:106B300086F83B80C6F85080A6F8C480A6F8C880C6
:106B4000A6F8D080A6F8CC80FF230DF1310106F124
:106B5000D7008DF831308DF832308DF833308DF824
:106B600034308DF835308DF836308DF830801FF0A8
:106B7000D8FA96F8D61068F3410186F8D610FF23AC
:106B800006220DF1390106F1DD008DF839308DF85E
:106B90003A308DF83B308DF83C308DF83D308DF833
:106BA0003E308DF838801FF0BCFA96F8E430A6F835
:106BB000F08023F0070386F8E43086F8F280C6F808
:106BC0001481A6F81881A6F830810CF0F7FC96F82D
:106BD0004A31A6F8488123F0030386F84A3196F833
:106BE0007A30A6F8508123F0180386F87A3096F8A8
:106BF000763186F8538123F0070386F8763196F8CC
:106C00009631C6F854A168F3451386F8963196F884
:106C1000BE31A6F8748168F3C303002286F8BE3142
:106C20000023C6E94E01C6E9502386F8E580A6F8A0
:106C30009481C6F8EC80A6F8BC81A6F8C8810FF054
:106C400077FDA6F8D2000FF079FDD6F8CC21374BAE
:106C5000A6F8D4001340C6F8CC310FF075FD96F8B5
:106C6000D03160F3020386F8D0310FF073FD06F1E6
:106C70001C03236296F8D031C6F8D48160F3C503B3
:106C8000C4E918ABC6E97888C6E97688C6E90588FC
:106C900086F80080F66186F8D03115F03BF80028C0
:106CA0003FF45DAE0DF0B6FF032530E60020204A2C
:106CB000DFF88090049302260EAF01930592032122
:106CC000CDE902000694434600900897CDF81C9049
:106CD00032460E960BF024F839460DF03DFA0028A6
:106CE0007FF4B3AE144A05924AF2D8320092CDE94D
:106CF0000300CDE90100CDF81C90089706944346A7
:106D0000012203210E960BF00BF88EE61225FEE50C
:106D100058460DF07DF950460DF06EF90725F6E561
:106D200006F16C007067C3E6480148010000FFF6F9
:106D3000514E03005D360300A5490300000000002A
:106D400070B590F824308AB0C3F342030D46044670
:106D500001210DF1230016468DF8233009F09CFF28
:106D60007178024628460EF03BF81D491AA3D3E974
:106D70000023A0FB0101FFF7C3F9236998420546F0
:106D800020D21B1A00220192164A0293164BA21A15
:106D9000A3FB02320221920900230A4409AE0991A1
:106DA00012490591CDE903330321D2B2069600932F
:106DB00018460BF027F831460DF0CEF948B9256199
:106DC0000AB070BD02D9C21A0023DCE700200AB065
:106DD00070BD0C200AB070BD8D49FD1A070000007F
:106DE00000CA9A3B98430020898888885D36030052
:106DF0002DE9F04FC38D468E1E4490F81A31B6B27D
:106E0000314413F007038BB004461FFA81F940F0B8
:106E1000A381B0F8F470A9EB07011FFA81F9090406
:106E200000F10C82904690F93920002AC0F2358199
:106E300094F8F03084F8F13094F8942194F8953176
:106E400094F8181184F81911934206D094F89631E9
:106E500003F00F03062B00F04782B14BD4F8145116
:106E60001A68944204BF00221A60002D00F0448189
:106E70002868002800F04081B4F81C31B4F82AC01A
:106E80004268C4F814216345B4F81E21B4F82011F7
:106E900000F01781B4F828C0EB8318232B7100236E
:106EA000A5F806C02A8469842B7729460DF0B6F828
:106EB0000DF0BEF8A368002BC0F2F780608DB4F827
:106EC0001C5110FB09F080B2B0FBF5F115FB01F38A
:106ED0009BB298421FFA81FAC0F0CE8005FB1101E7
:106EE00040F2E2438F4889B203FB01F1A1FB0001AC
:106EF00089A3D3E90023FFF703F9A8EB0008E38D8A
:106F00001F4494F93930BE1B564440F2E247002B2F
:106F1000E68507FB05F6C0F29681834A83498448DB
:106F200040F69C431CF0F5FF404080F311884FF081
:106F3000030002DF0027B3467E4AB4F820317E49C1
:106F4000B4F81E01A0853244B2FBF6F2A4F8C620C4
:106F500042F2107202FB03633144013BB1FBF6F1D4
:106F6000B3FBF6F6B4F81C3163858AB2831D9A42EE
:106F7000A4F8C260A4F8CE2004DDC0F57F43FA3344
:106F80001A4492B294F81A31A4F8CA201B0744BFDD
:106F90000023A4F8C4300221012016F063FE002271
:106FA00002218146012009F047FD64494FF4F8723F
:106FB000204609F0D1FC00F1030A5FFA8AFA604B1F
:106FC00000945246012100200AF034FF30F0020301
:106FD0000CD0554A5B49564840F6CB431CF099FF0C
:106FE000404080F311884FF0030002DF4D4EABFBB1
:106FF000066B49A3D3E9002330465946FFF780F8D2
:10700000089420F07F4506944F4823690493A5FB1C
:107010000001072303FB05114C4B07934C4B0593D1
:10702000301A4FF6FE736BEB010103934FF47A7243
:107030000023FFF765F84346CDE90150009752461B
:10704000012100200AF06CFE30F002030CD0364A19
:107050003C49374840F6E5431CF05BFF404080F375
:1070600011884FF0030002DFB9F1000F40F03681C4
:1070700000200BB0BDE8F08F1B1A2A4940F2E24015
:1070800003FB00F0A0FB010123A3D3E90023FFF7DA
:1070900037F820F07F40804431E790F8E520002A5F
:1070A0003FF4C6AE80F8E530C6E6E168626823F0DA
:1070B000004391422CBF88449044A360A8EB03088E
:1070C000FCE6B4F82CC094457FF4E4AE40F2E24C08
:1070D0000CFB03FE42F2107C0CFB01EC0CF1FF3CBC
:1070E000BCFBFEFCB4F8C2E01FFA8CFCE6457FF462
:1070F000D1AE01232B71D8E60B4A16490C484FF448
:1071000042631CF006FF404080F311884FF00300FB
:1071100002DF2868B0E600BF8D49FD1A07000000B5
:107120003044002000CA9A3BD0B90400BCB504002A
:107130005CB50400FF5962027FC3C90148270020E3
:10714000C5580300B0BA04008D49FD1A6D580300FC
:10715000899F03009CBA040001200CF06FFF0646D3
:10716000002800F0CF80744809F0C0FB05460028D5
:1071700000F0C880714B1A68002A00F0BB800CF048
:107180007BFF2B793268D4F81411516043F003036C
:10719000C4F8146100202B710C236B71E87194F812
:1071A00028312B72664AD4F82431A18DA2FB032327
:1071B0009B0AA5F80930B4F81C31A5F80B30B4F8D7
:1071C0001E3194F81A21A5F80D300631B4F820319B
:1071D000A5F80F304944D4F8D43189B260F30202E3
:1071E000A4F8F41084F81A21A5F81110BBB194F892
:1071F0007621960713D494F8CF21D0070FD4D4F872
:10720000E0219342D4F8D8217FD062B91A7902F0F4
:107210000302032A00F08580C4F8D83105E0D4F8D1
:10722000D821002A68D0D4F8DC311A682A601D60A1
:107230002B68C4F8DC510BB9C4F8E4516FF0760048
:107240000BB0BDE8F08F226CA36C02FB1933A36472
:1072500014F0B2FD054694F8E400C0F3C20014F047
:10726000ADFD054406FB05F5364B94F8282105F5E0
:10727000742505F23F25A3FB0535AD0C07FB02F293
:10728000A36C226505FB0AF072080344963A934208
:1072900028BF13462564A6EB050B2B4DC4E911232B
:1072A0000023C4F8EC30A0FB050121A3D3E900239F
:1072B000FEF726FF2249A8EB0008D4F82401A1FB21
:1072C0000030800A07FB00F019A3D3E90023A0FBDC
:1072D0000501FEF715FF20F07F472DE60122022170
:1072E000104609F0A9FBC3E6002384F89521A4F811
:1072F000C830B2E51C6042E72B60C4E97555C4F89C
:10730000DC5198E76FF06800B3E61968C4F8E01143
:10731000002A88D11A682A601D602B68C4E9765556
:1073200089E7DA79032AF5D00A2A7FF475AFF1E705
:107330008D49FD1A07000000C4440020304400209D
:107340005917B7D183DE1B4300CA9A3B00000000E7
:107350002DE9F04F0B68D2F800B01B6897B08A4651
:107360000A93037F00F11E01C3F380130446154600
:1073700014A806228DF847301EF0D3FE9AF81100AB
:107380000C90FF280DF1480900F083804A460DF16A
:10739000470113F00BF99DF847600236F6B28DF8FD
:1073A00047600A9B277FD4F800C0CDF82CC003F1BA
:1073B0007108FF094B4606F00102414638460FF0BE
:1073C000CFF900284BD19BF8D6200D9066F34102EF
:1073D0008BF8D620494606220BF1DD001EF0A1FEF7
:1073E0009BF8D62067F3000241468BF8D6200BF1BC
:1073F000D70006221EF095FE2F1D032204F12E0158
:1074000005F108001EF08DFE05F11806042204F1B6
:107410002A0138461EF085FE052204F13A01304665
:107420001EF07FFE3046052109F036FC6A7F94F895
:107430003F1000F03F0060F305026A77C1F30402D9
:10744000AA77A68EEE810128B6B201F01F0206D9F6
:107450001B3202F01F020B2A01D80D9B0EBB0A9BA8
:10746000E6680B9800225A6195F82030012762F3F4
:10747000000385F82030214627710CF0CFFD3068DD
:10748000377131460CF0CAFD0CF0D2FD17B0BDE8E3
:10749000F08F062214A948461EF043FE9DF847606F
:1074A0007FE7DAF80020536094F8372094F83630FC
:1074B00043EA02232B829BF8E430628E0E92490944
:1074C00061F3C5038BF8E43014F076FC0D909BF863
:1074D000E400C0F3C20014F071FC0D9BC24A298A7B
:1074E00040F2E24808FB06F6034406FB03F303F50B
:1074F000742303F23F23A2FB03239B0C6B6294F8DB
:107500003130BA4A08FB03F3AB637308963BAB62B6
:10751000B4F83880B64B42F210703244B2FBF6F247
:10752000ABF8C6201FFA88F200FB02623344013A2E
:10753000881DB2FBF6F2B3FBF6F3ABF8C2209AB2A9
:107540008242ABF8CE2004DDC1F57F41FA310A4416
:1075500092B2ABF8CA20394604220BF1E8001EF0C3
:10756000E0FD234613F81C2FC2F34011DA070F91F8
:107570000D9100F100814FF48073A3830A9B93F86F
:10758000260013F09DFD0146062204F12B00002980
:1075900000F0E98004F124011EF0C3FD0C9BFF2BD9
:1075A00004F1250000F0E28014A906221EF0B9FDC6
:1075B0009DF84730A3774946062204F11F001EF0CC
:1075C000B0FD9BF8E430EA896286C3F3C2032A8ADD
:1075D000A28684F83830A4F8368058460EF046FD6E
:1075E0002146A881E080DAF804400B980CF016FDE3
:1075F000AB89E3801B2323710D9BD4F80080002B03
:1076000040F0CE809DF83C302377214640460CF078
:1076100005FD0CF00DFD95F84500B5F84040B5F8B6
:107620004270012100F0070014F0D6F9274407F555
:10763000E177391881466F4800273123CBF80830AD
:10764000A1FB000166A3D3E90023CBF80470CBF8BB
:107650000C70FEF755FD6B6A0E9ADAF80C4020F0BC
:107660007F40F61A40F2E24303FB024402213A460D
:10767000CBF81000012009F0DFF90A9D28460DF033
:10768000AFFD821C5C4B0095D2B2384601210AF056
:10769000D1FB04F2B2440128A4EB090400F08B8072
:1076A0000A9B93F82430DB0772D458460EF0DEFCB8
:1076B000DFF84091A6FB098649A3D3E900230546DC
:1076C00031464046FEF71CFDDAF80830CDF818B018
:1076D000A3F13A0A494B0793494B05934FF4E473DE
:1076E0000893DBF81030049320F07F4745480023CF
:1076F000A7FB000103930723B8EB000003FB07116E
:1077000066EB01014FF47A720023FEF7F9FC34A313
:10771000D3E90023CDE90170A4FB0901FEF7F0FCD9
:10772000033520F07F40EDB2009053462A460121F8
:1077300000200AF0F5FA30F002030CD0324A334947
:10774000334840F2C9131CF0E4FB404080F3118839
:107750004FF0030002DF01220221104609F06CF90C
:1077600017B0BDE8F08F1EF0E7FC17E706220021F6
:107770001EF0E2FC1CE7244A26492548F1231CF0B0
:10778000C8FB404080F311884FF0030002DFF2E6AF
:10779000002301220093184611460AF04BFB84E7B0
:1077A0006B7F43F040036B77384612F00BFD0123EB
:1077B000E883237729E70CF00DFD0A9B83423FF411
:1077C0006FAF114A1449124840F29F231CF0A1FBED
:1077D000404080F311884FF0030002DF60E700BFF4
:1077E0008D49FD1A0700000083DE1B43FF5962022A
:1077F0007FC3C90100CA9A3B4D9F03001D9F030030
:10780000899F03008D49FD1AC4BB0400B0BA04006F
:107810005CB5040044B6040020BC04000000000075
:107820002DE9F04F8FB0DFF8D8800A900DF13701C5
:107830000DF136000CF06AFC324F9DF836A09DF831
:1078400037B00AF039FBD8F80040A4FB07542AA34C
:10785000D3E90023814621462846FEF751FC0A9BC6
:107860000B90D8F804000693274B0593002622A31B
:10787000D3E90023A0FB0701CDE90766FEF740FC32
:107880000B9B20F07F40CDE90360204823F07F4729
:10789000A7FB00010723281A03FB071164EB010172
:1078A0004FF47A720023FEF72BFC0096CDE90170AD
:1078B0004B465A46032150460AF032FA30F0020491
:1078C00016D1134A134800231BF032F868B19DF813
:1078D00037209DF836000094234603210AF0AAFAC7
:1078E0006FF073000FB0BDE8F08FD8F80C00F9E727
:1078F0006FF08B00F6E700BF8D49FD1A070000000E
:107900004058002000CA9A3B65FC03008D49FD1ACF
:10791000447B0B005058002038B50F4D04460AF048
:10792000CBFAA9680AF0CAFA6968B0FBF4F4044417
:107930000A4807A3D3E90023A1FB0001FEF7E0FBFF
:1079400020F07F40844294BF0020012038BD00BF5A
:107950008D49FD1A070000004058002000CA9A3BDC
:1079600001481BF02BB900BF6002002007B522F0D0
:1079700023FD4FF47A72A0FB020302FB0133C00B1C
:1079800040EA4340064B4FF400421860002305488C
:10799000CDE900231BF0B6FE002003B05DF804FB28
:1079A00098330020700C002008B5044B187800F0C4
:1079B00093F9BDE808401BF0A4BF00BF225C002083
:1079C000044B1A78824202D01870FFF7EDBF0020F6
:1079D000704700BF225C002008B522F0EDFC4FF498
:1079E0007A72A0FB020302FB0133C00B40EA434062
:1079F000034B1860BDE808400020FFF7E1BF00BF5F
:107A00009833002008B522F0D7FC4FF47A72A0FB1F
:107A1000020302FB0133C00B40EA4340064B1B68E4
:107A2000C01A47F23053984204DDBDE808400120F7
:107A3000FFF7C6BF08BD00BF9833002030B5184C13
:107A40008DB00022002303A920461AF003FE08B1DE
:107A50000DB030BD059DDDE903011BF050FFB5FA07
:107A600085F56D09FF238DF8183007908DF82050AB
:107A700022F0A2FC4FF47A72A0FB020302FB013158
:107A8000C00B40EA4140C90B8DE8030006ABCDE9CD
:107A90000A010FCB00F02CF91BF033FFD1E700BF38
:107AA000EC0D00201FB583F00103CDE90112039313
:107AB0000022002301A904481AF076FD03481BF0B8
:107AC0007DF805B05DF804FBEC0D00209C33002030
:107AD00010B51AF03FFB044678B10A490A4822F073
:107AE000A4FAA36809491B6820469847A3689B68C5
:107AF00033B120469847002010BD6FF01500FBE71A
:107B00001846F9E73D7A02009C330020A57A02006E
:107B10002DE9F041134B144EA3EB060807460D4622
:107B200006EBC106C8F3C708A84506DC00243846A2
:107B300022F0EFFD2046BDE8F08132683B689A42B2
:107B40000BD13D71736838461B689847012804467D
:107B5000ECD0022804D00028E9D101350836E3E74B
:107B60000024E7E7A8CB040078CB04002DE9F0411E
:107B700046680769054630681AF0ECFA3860002854
:107B800045D096F805E031794EF40072D0F810C077
:107B9000D0F80880012303FA01F4DCF800301EF06D
:107BA000010F14BF2343A343CCF80030D8F80030B2
:107BB000984778BB02F070FD184802F0AFFC04460D
:107BC00010BB1749174822F056FA174802F050FC2C
:107BD0007B795BB901233B710022002311481BF024
:107BE00055F8AB681B680BB128469847F18859B126
:107BF00040F2E7304FF47A72002300EBC1300021ED
:107C0000FEF77EFA1BF052FB2046BDE8F0816FF0D4
:107C10001504F9E76FF00404F6E700BF70020020D6
:107C20002D7C020088100020E8C3040030B58BB022
:107C3000084C20461AF08EFA0569074A2346282187
:107C4000684603F06BFB0122291D684602F0D6FB53
:107C50000BB030BDF2C30400FCC3040008B54FF400
:107C6000F012002302481BF045F800EAE07008BD5E
:107C7000881000202DE9F3410C461646134901AA4D
:107C80001F461CF060FFD8B1DDF80480B8F1000F8A
:107C900016D1012C17D10E4D2246291D3846B0476A
:107CA000002806DB6C712C790A482CB11BF03FFED2
:107CB000404602B0BDE8F0811BF04BFE2046F8E7DD
:107CC0006FF00100F5E76FF01500F2E7F2C3040072
:107CD000AC330020D8A8040010B504460C2022F0D4
:107CE0001FFD024A0260047210BD00BF00AD040017
:107CF00084B070B504AC84E80F00202022F010FDA1
:107D00000446084B44F8083B04AD06460FCD0FC4AB
:107D100095E8030084E803003046BDE8704004B0F5
:107D2000704700BF04AD04000268034B9A420CBFC9
:107D300008300020704700BF04AD040010B50446B1
:107D40000C2022F0EDFC024A0260047210BD00BF5C
:107D50000CAD040082B038B504A981E80C000546DA
:107D600011481AF0F7F90446A0B16B68012B0CD04A
:107D7000022B05D0A3B9BDE8384002B01BF00FBEFE
:107D80001BF014FE00282046F5DCBDE8384002B0A8
:107D90001BF0FEBD6FF00400BDE8384002B0704734
:107DA0006FF08500F8E700BFF2C3040082B010B5A1
:107DB00002A981E80C0004460A481AF0CBF958B130
:107DC0006368022B06D11BF0F1FD0028CCBF002018
:107DD00001206060002001E06FF00400BDE8104069
:107DE00002B07047F2C304000D4A0E4952F8203029
:107DF0000978013342F820300B4A01238340107880
:107E00000343DBB2137023EA01030849084A0978E7
:107E100050780B43181A537018BF0120704700BFE9
:107E2000B4330020255C0020235C0020245C00206B
:107E3000110C0020114A52F82030002B10B519DD2A
:107E4000013B42F820300E4A2BB9012383401078C1
:107E500020EA030010700B480B4B047810780B4A93
:107E60005978127820EA040010435870401A18BF5D
:107E7000012010BD6FF01500FBE700BFB4330020F8
:107E8000235C0020255C0020110C0020245C0020D5
:107E900010B5084B084A1870084B51781C78084BED
:107EA0001B7823EA040318435070401A18BF0120BE
:107EB00010BD00BF245C0020110C0020255C0020B8
:107EC000235C0020074B00221A70074B074A1978E1
:107ED000074B50781B7823EA0103181A537018BF18
:107EE00001207047245C0020255C0020110C00203C
:107EF000235C0020A0F1E003072B03D82030C0B2A0
:107F0000FFF772BF074B002213F8011B21B10132AA
:107F1000062AF9D10020704703F8010C0028F6D09A
:107F2000F8E700BF140C0020A0F1E002072A10B40B
:107F3000034604D8203010BCC0B2FFF77BBF064A0E
:107F40000620002112F8014BA34208BF02F8011CD1
:107F50000138F7D110BC7047140C002002480822E9
:107F600000211EF0E9B800BF120C002010B508492E
:107F7000002301EB4302B2F8014024B10133062B88
:107F8000F7D1002010BDA2F801000028F6D0F8E7D4
:107F9000040C002030B50023074C194604EB4302C3
:107FA0000133B2F80150854204BF51709170062B25
:107FB000F4D1002030BD00BF040C002002480C2288
:107FC00000211EF0B9B800BF050C00200048704722
:107FD000110C002000487047040C002008B5FFF782
:107FE000F5FF094A127822B1012A07D06FF0850007
:107FF00008BDBDE80840092100F032BDBDE80840D9
:10800000013000F03BBC00BF1A0C002008B5FFF7A0
:10801000E1FF094A127822B1012A07D06FF08500EA
:1080200008BDBDE808400D2100F01ABDBDE80840BC
:10803000013000F049BC00BF1A0C0020024903487F
:10804000012202F0DBB900BF265C0020A7C40400B7
:1080500010B502F021FB074802F060FA044630B97F
:108060000548064922F007F8054802F001FA2046C3
:1080700010BD00BF88020020B81000203D80020023
:10808000BBC4040038B500F05DFAC8B100F0B2FC22
:1080900002281BD10F4B1C780F4D2B78A34217D011
:1080A000FFF75CFFFFF78AFFFFF798FFFFF7AEFFD0
:1080B00020462C7000F02EF8BDE838401BF021BCA3
:1080C00000F098FC841E18BF0124E5E70124E3E7D3
:1080D00038BD00BF265C00201A0C002070B50C468D
:1080E00015460A4900221E461CF02DFD50B1012CF8
:1080F00009D1074922463046A847002802DDFFF78C
:10810000C1FF002070BD6FF01500FBE7B1C4040093
:10811000265C002010B504460C2022F001FB024A28
:108120000260047210BD00BF6CAD04001FB520BB1F
:1081300011B9002004B010BD11490B6843F00102D1
:108140009A420A60F5D04FF48073ADF8003022F007
:1081500033F94FF47A72A0FB023002FB0101DB0B12
:1081600043EA4143C90BCDE9023104AB13E90F00E7
:1081700000F078F81BF0C5FBDBE76FF01500D9E7DE
:10818000D43300202DE9F04F9A46234B88461546FC
:108190000A440C2101FB023393E807008DB005ACC3
:1081A00084E80700DDE9166719F0D4FF814670B353
:1081B000CDE90885CDE90A67059819F0CBFF8368FA
:1081C000D3F804B0BBF1000F09D00CAB13E90300E6
:1081D000DDE908238DE803002046D847A0B9D9F887
:1081E00008301B78022B14D8CDE90A670CABCDF808
:1081F00008A013E9030042468DE803002B46204601
:10820000CDE908851BF0CEFC0DB0BDE8F08F012054
:10821000FAE76FF08500F7E774AD040073B50F4B14
:1082200006460C4615461AB10D4A126843F821203D
:1082300053F8241000201BF0A5FC58B1DDE90623FB
:108240000021CDE9002330462B462246FFF79AFF56
:10825000002801DD6FF0850002B070BDD83300202A
:10826000D43300207FB56C4684E80F00182022F03C
:1082700057FA0546054B45F8083B064694E80F00BB
:1082800085E80F00304604B070BD00BF84AD040027
:1082900084B070B504AC84E80F00202022F040FACE
:1082A0000446084B44F8083B04AD06460FCD0FC406
:1082B00095E8030084E803003046BDE8704004B050
:1082C000704700BF8CAD04000268034B9A420CBF9C
:1082D00008300020704700BF8CAD040013B56C4619
:1082E00084E80300102022F01BFA0246054942F8F8
:1082F000081B034694E8030082E80300184602B016
:1083000010BD00BF90AD040007B5094B1A78094BAA
:108310008DF80020162102FB0133019302AB13E913
:108320000300FFF7DBFF03B05DF804EB1BF0E9BAD5
:10833000275C0020295C002002490348012202F04A
:108340005DB800BF275C002051C5040070B50378FC
:108350008AB004460E4607AD032B20D8DFE803F0B1
:1083600002191B1D114928461DF09CFE63780493D9
:10837000A3780393E37802932379019363790093BD
:108380000B4AA37905951E2130461BF0CFFD0AB09C
:1083900070BD0849E7E70849E5E70849E3E7084A07
:1083A0000A2128461BF0C2FDE0E700BF64C50400B7
:1083B0008DC504006BC5040072C504007CC50400B3
:1083C00086C504002DE9F0438BB00D4616461F49C3
:1083D0006A46044698461CF0B6FBF8B10098E8B12E
:1083E0000A2201A91DF0E5FD019B1F7857BB162D40
:1083F00028D1C4B2042C25D8DFF854906C432A4607
:1084000009EB04014046B047002818DD04F10F00D5
:1084100002A94844FFF79AFF002010E00D496A4680
:1084200020461CF090FB50B1009B002BF4D1012D95
:1084300008D109492A464046B04700EAE0700BB02F
:10844000BDE8F0836FF01500F9E700BFB0C5040088
:10845000295C002055C50400275C002010B590B0B1
:1084600004461EF0C4FE08A9FFF770FF01A92046CC
:1084700005F00CFA9DF80530012B13D10A481AF0CB
:108480009DFB20461EF0B3FE084B09491B781622BF
:1084900002FB03110F3107221DF032FE10B905480F
:1084A0001AF08CFB10B010BDE4020020275C002005
:1084B000295C0020D402002007B50A4B0A481B782B
:1084C000162202FB03006946002307220F300093A7
:1084D000CDF803301DF014FEB0FA80F0400903B06F
:1084E0005DF804FB275C0020295C00202DE9F041A9
:1084F00004468CB00D464FF016080F4F04A92846CD
:1085000014FB08F6FFF722FF06F10F0029460722A9
:1085100038441DF006FE22460849684602F016FF60
:108520004246B919684601F069FF05481AF046FB52
:108530000CB0BDE8F08100BF295C0020B9C5040083
:10854000D402002037B50E4B0E4C1B78162202FBCE
:1085500003440F3400250722694620460095CDF8D4
:1085600003501DF0CDFD48B12146284605F03CF9E9
:1085700020B11EF079FD012003B030BD0020FBE7E3
:10858000275C0020295C0020F0B58DB0FFF794FF38
:10859000044610B9FFF7D6FF00B90224204D287811
:1085A00004EB0010112805DC02282DD010280AD079
:1085B000002405E0202806D012284FF000040AD03D
:1085C00020460DB0F0BD04F043FC00232B700446A0
:1085D0000028EDD0F4E704F03BFC2C7004460028A2
:1085E000EED1104F0FCF02AE0FC63B680E4933607D
:1085F00004220094234602A804F0F8FB0446002855
:10860000DED102232B70D3E7064E0FCE07AC0FC48A
:1086100033682360002304490093042207A8EBE792
:10862000285C002040AC040094AD040030B591B04B
:1086300005461EF0DCFD08A90446FFF787FE01A9E8
:10864000284605F023F99DF80530012B05D1FFF7E9
:1086500033FF214618B903F077FD11B030BD034B4D
:108660001878FFF743FFFFF78FFFF6E7275C00203E
:1086700030B591B00D4601A9044605F007F99DF803
:108680000530012B0BD120461EF0B1FD08A9FFF7E4
:108690005DFE104B00221A701DB1FFF775FF11B07F
:1086A00030BD022120461EF048FDFFF76DFF204639
:1086B0001EF09DFD084B09491B78162202FB031191
:1086C0000F3107221DF01CFD0028E8D104481AF0E4
:1086D00075FAE4E7285C0020275C0020295C002074
:1086E000D40200207FB5002003F076FE044648BB8C
:1086F00001F0D2FF154801F011FF044610BB1449E8
:108700001448154E21F0B7FC144801F0B1FE14488E
:1087100001F0AEFE2146204603F016FD25462A460E
:108720003146684602F012FE013568461CF007FA31
:10873000052DF4D10B4805F033F80B4805F008FA85
:10874000FFF722FF204604B070BD00BFBC0200202E
:1087500039830200E8100020B9C50400C9C504002F
:10876000CDC50400A0020020F4020020034B044801
:108770001B78162202FB03000F307047275C002095
:10878000295C00201FB54D240294044C0194BDF8CF
:10879000184000941FF086FE04B010BDF7C5040019
:1087A00007B5064B00930649064805234FF40072AF
:1087B0001AF00AFA002003B05DF804FBE0AE0400F2
:1087C000685D002018110020F0B5134E134F89B0DA
:1087D000002200236946304619F03CFF054608B1E7
:1087E00009B0F0BD1BF0C2FA04460028F8D01822E8
:1087F000294602A81DF0A0FC08230DEB030120462A
:108800000397CDF810D0ADF8143006F0EFFC2046F9
:108810001EF02AFCDCE700BFBC0D002018AE0400EF
:108820002DE9F041134FDFF850808AB001AE0022ED
:1088300000233146384619F00DFF054610B10AB045
:10884000BDE8F0811BF092FA04460028F7D0182208
:10885000294604A81DF070FC0C2304A92046CDE98C
:108860000586ADF81C3006F0C1FC20461EF0FCFB6E
:10887000DDE700BF8C0D00207CAE040037B5054657
:1088800040F6CD42014600230C4819F08DFE044607
:1088900078B110F10B0F09D1002200236946074877
:1088A00019F0D8FE2846FFF7E9FF0446204603B03A
:1088B00030BD0349034821F0C1FBF7E7BC0D0020A0
:1088C000D40300201811002030B5054685B040F6CD
:1088D000CD42014600230D4819F066FE044678B1EA
:1088E00010F10B0F09D10022002301A9074819F04C
:1088F000B1FE2846FFF7E8FF0446204605B030BD2C
:108900000349044821F09AFBF7E700BF8C0D0020D3
:10891000C40300201811002010B504460C2021F0DB
:10892000FFFE024A0260047210BD00BFE8AE040000
:1089300001481AF043B900BFE403002037B50F4CDB
:10894000A5682C21EB6820469847A0B92C212B69FB
:108950006A462046984770B9094C009B22789A4293
:1089600009D0D8B2207000F035FC20B92078FFF78C
:10897000D3FF1AF0C6FF03B030BD00BFF0A804005B
:10898000985C002013B50B4821F021F970B1FFF776
:10899000D5FF044638B94FF4F01200230648CDE95C
:1089A00000231AF0AFFE204602B010BD6FF0120493
:1089B000F9E700BFF0A80400A80C0020024B1870D3
:1089C00002481AF0FBB800BF2A0C0020F403002074
:1089D00008B5044801F020FA002818BF6FF0150010
:1089E00008BD00BFBD890200014B1878704700BF69
:1089F0002A0C0020084B1B78033B082B08D8DFE823
:108A000003F0090509090707090705000020704759
:108A100001207047022070472A0C002010B5094839
:108A2000094C19F097FB206048B1084B08494D22CA
:108A300015F0B0FC206820F077FB002010BD6FF02F
:108A40001500FBE75EC60400DC330020ECAE04003A
:108A500064C60400014819F045BF00BF340E002071
:108A600038B504460D46FFF7BFFF0B280BD8DFE8EB
:108A700000F01E1E0A0A1E060A0A0A0A0A1EBDE89D
:108A8000384001F093B94FF476720023094819F089
:108A90004FFF09482146006800232A4620F04EFB7C
:108AA000044610B1034819F01DFF204638BD6FF091
:108AB0001204FAE7340E0020DC3300200148FFF7EF
:108AC00007B800BFB1C6040030B50A4C0A44914251
:108AD00000D130BD11F8013B58400309E35C83EA43
:108AE0000013DDB2C3F30313E05C80EA0510C0B2EB
:108AF000EDE700BFB7C604000B6801330B60014B04
:108B00001B6818470404002007B50B4600210246E5
:108B10000191034801A900F0F9F803B05DF804FBE6
:108B2000F98A020030B585B0CDE90101044600257F
:108B300001A90548039500F0E9F8DDE90230984203
:108B4000B8BF255405B030BDED3E04002DE9F84F07
:108B5000B0F8189019F00808044693460DD0012982
:108B60000CBF49F0100949F02009A0F818908BF3C8
:108B70001188BFF36F8FBDE8F88F09F0070902294C
:108B800007D120461BF0F9F90028F0D00128238BEB
:108B90004ED16769218B002F15DA256821F0070176
:108BA000C4E9008841F0010121830026218B01F0F6
:108BB000070ACA4502D0A368002B5AD10DB9002E6E
:108BC00071D0002356E001F007035A1F012A1ED876
:108BD00021F00701062B256889B2C4E900880AD173
:108BE0003DB1638B2A46126801339BB2002AFAD149
:108BF000638341F00201218320461BF0BEF9064643
:108C00000028D3D0238B43F020032383CDE7042B0C
:108C10000CD121F0070189B2218320461BF0ADF968
:108C200005460028C1D041F0200121830025BCE782
:108C3000032809D1226923F00703166843F00603CD
:108C4000238300252F46B1E7042806D1226923F0AB
:108C50000703566843F00403F2E7052806D12269AA
:108C600023F00703966843F00503E9E700252E4645
:108C7000E8E7012341F0080121838BF31188BFF35A
:108C80006F8FFBB985BB16B11F492046B0474FF027
:108C90002003EFF3118B83F31288BFF36F8F238BC5
:108CA00023F008032383238BDA0625D523F0100352
:108CB00023830121B4F8189009F0070900297FF4F3
:108CC0005EAF54E7A1680029DCD0D1F80090D1F85C
:108CD00004B03B4652462046D847B9F1000FD1D0E8
:108CE0004946D9F80090F2E729463B4652462046CD
:108CF0002D681BF05EF9C5E713F020011EBF23F0BD
:108D0000200323830221D5E7DF3F04002DE9F04F44
:108D10008FB01D46531E01908A4602934FF0000902
:108D2000029B5878252803F1010421D14FF0000C53
:108D300018464FF0FF3702306146CDF80CC03C4674
:108D40000A2602780290392A00F1010058D81F2A19
:108D500018D8002A00F0F681019B5146252098473B
:108D6000029B51461878019B984709F10209D7E701
:108D7000002800F0E781019B5146984709F101095D
:108D80000294CDE7A2F12003192BE5D80FF2040ECF
:108D90005EF823F0FD8D0200598D0200598D02000E
:108DA000FD8D0200598D0200818E0200598D020056
:108DB000598D0200598D0200598D0200C38E0200A8
:108DC000FD8D0200598D0200D78E02008F8E0200A9
:108DD000598D02009B8E0200B78E0200B78E0200F2
:108DE000B78E0200B78E0200B78E0200B78E020067
:108DF000B78E0200B78E0200B78E02009446A0E73D
:108E0000582A00F01B81A2F163035FFA83FEBEF1D2
:108E1000170FA1D8172B9FD80FF2040E5EF823F07E
:108E20009F900200FD8E0200598D0200598D0200B4
:108E3000598D0200DD8E0200FD8E0200598D020068
:108E4000598D0200DD8E0200598D0200598D0200FD
:108E5000598D0200E78F0200598D0200598D0200E2
:108E60007F900200598D0200FD8E0200598D020094
:108E7000598D0200E78F0200598D0200DD8E02003D
:108E8000019B51462520984709F1010948E7039BBA
:108E900003F0FE030393002753E7002C0BDA002FA7
:108EA0000BDA039B002B00F0498124EAE47406FBF3
:108EB0000424303C45E7002FF7DB06FB0727303F53
:108EC0003FE7002F55F8043B01DB1F4639E71C1E26
:108ED000BFF637AF64420223039332E7682A03D117
:108EE000682906D148212CE76C2A02D16C2900F0B0
:108EF000278100297FF430AF114622E77A2907D174
:108F0000752A05F104062D6862D14FF000080DE0C6
:108F10006C29F5D04C29F3D1EB1D23F007031E4635
:108F2000752AF6E8020107D1D3E90058BCF1200FF9
:108F300051D1864B013C09E005468846B8F1000F47
:108F4000F4DA6D42824B68EB4808013C00930DABAC
:108F500005934FF0000B284641460A220023CDF826
:108F600010B0FDF7CDF8059BCDF81C80303203F82A
:108F700001292846CDE90535414600230A22FDF79F
:108F8000BFF8069B0A2B079B73F100030BF1FF3B15
:108F900005468846DFD2049B049AC3F1010B0EAB51
:108FA0009D18002FA5F1040504DA039B13F0010FAF
:108FB00018BF2746039BA7EB0B08B8F1000FD4BFDF
:108FC000A4EB0B04E41B9B0700F18180274677E0AC
:108FD0004FEAE578B2E7BCF12B0F0ABF5D4B5E4B61
:108FE00004F1FF34B2E7702A28D12E46002356F848
:108FF000041B00295CD059480090023C02F060023A
:10900000A2F139080DF1340E002501F00F02092AF2
:1090100088BF424430320EF8012910294FEA11125C
:1090200042EA03724FEA131073F1000305F1FF3CAB
:1090300021D20EABC5F1010B1D44B2E76C2904D15E
:109040002E46002356F8041B08E04C29F8D10735BA
:1090500025F007052E466B6856F8081BBCF1230F58
:1090600006D13F4D3D4812F0200F08BF2846C3E708
:1090700039480090C2E7654611460346C5E72E46CB
:1090800056F8045B28461DF017F8002F834602DBD4
:10909000B842A8BFBB46304B009300278AE72E4654
:1090A0004FF0010B56F8043B8DF8203008ADF2E785
:1090B0002C4D4FF0050BEEE7019B514620209847C1
:1090C000013FF9D524EAE473013C9944E41A009B7A
:1090D000A9EB030904E000935146019B9847009BCC
:1090E00009EB030713F8010B0028F4D1C146B9F1CD
:1090F000010913D528EAE878D946B9F1010912D552
:10910000BBF1000FA8BFD8442546013D11D5002C66
:10911000A8BFA04408EB0709354601E6019B51466C
:1091200030209847E3E715F8010B019B514698471B
:10913000E3E7019B514620209847E6E70123CBE671
:109140004C21FEE548460FB0BDE8F08FC9C60400CB
:10915000C7C60400CBC6040001C70400D0C6040083
:10916000CDC60400D3C6040008B54FF02002EFF3CB
:10917000118382F31288BFF36F8F02F017F903484F
:109180001AF0C7FE01F0D0FDFCE700BFD9C604000D
:109190001FB507240294044C0194BDF818400094B4
:1091A0001FF080F904B010BD2B0C002010B5084C46
:1091B00086B024788DF81740012402940DF117042D
:1091C0000194BDF8204000941FF06CF906B010BD6A
:1091D000320C002000B589B064288DF8070019D83A
:1091E0000E4B18221870002102A81CF0A5FF0C4B92
:1091F00003930DF10703049302A901230020ADF8A6
:10920000143005F0F3FF10F1800F08BF002009B003
:109210005DF804FB6FF01500F9E700BF320C002089
:10922000A0AF04002DE9F7430F4606460821C06AA7
:10923000DFF850901BF006FA3C68241A80463C6028
:1092400004EA0905AC4203D8002003B0BDE8F0836E
:1092500008236A46214630461BF069F90028F4D1FC
:10926000694630461BF0F8F940B1BDF80230BDF850
:1092700004203C6005EA090513441D44A4EB0804DE
:10928000E0E700BF0000FFFF2DE9F04F044689B082
:109290000D4600F11407384620F073FD284618F0FB
:1092A00059FFA062002800F01F818368DB6898479F
:1092B000E06228B96FF01505284609B0BDE8F08FC7
:1092C000A06A8368DB6898470368013B1F2BF1D8CD
:1092D000A06A216805AA20F01BF90028EAD1A58917
:1092E000002DE7D0069BB5FBF3F203FB1255002DD2
:1092F000E0D1E389012BDDD9E36A009593F804807E
:109300004FF0FF334FF0FF32384619F0FDF9E06AB5
:1093100008211BF097F9A9460646E3891FFA85FA4A
:10932000534545D8E3894B4500F0D38053450BD1D5
:10933000009908234246891B20461BF030F918B9D2
:10934000E08969461BF073F969462046FFF76AFF1A
:109350000546002840F0BF80009BDFF8E491636081
:1093600003EA0903A360D4E9011399420ED3082349
:1093700001AA20461BF0DBF8C0B901AB13F8012BA2
:10938000904540F0C18001300828F7D16368E0893A
:109390001B0C1B04694600931BF049F9A389009933
:1093A000424620461BF0FBF8002826DA054692E0EC
:1093B000A1892B04891B13FA81F142460823204618
:1093C00000911BF0ECF878B1E08969461BF02FF9A9
:1093D00009F1010900990823424620461FFA89F93C
:1093E0001BF0DDF800289DD0013596E7BAF1000F9B
:1093F00000F0A2806FF01C056DE045D06368334437
:1094000000934FF6FF780099A3898AB29B1B9A427A
:1094100015D3616820461BF0E7F80028C6D16368C1
:10942000474AA18913400B44A3EB460363601340F2
:10943000A36020461BF005FA002840D0B6E70823B9
:1094400003AA20461BF073F80028AFD103A92046D9
:109450001BF002F938B1BDF80C30434503D1BDF81B
:109460001030002B43D0009B33440093CBE75B1AB2
:10947000424620461BF093F8002897DB08D0E26AAA
:10948000A36812681344A360D4E901318B42EED87B
:109490006168A38901EB46029A42CDD1DFF8A08032
:1094A000A36801EA08029342C6D020461BF09CF84C
:1094B00000287FF47BAF636803EA0803A360A089F8
:1094C000A388A0EB4606B34205D120461BF0A4F9C1
:1094D0006CE76FF02C05384619F08EF9002D7FF4FB
:1094E000EBAE01232374E7E66FF00505E4E663685D
:1094F000E0891B0C1B04694600931BF098F8009947
:1095000020461BF071F897E701A920461BF0A4F84C
:10951000D4F804B080B1009ABDF808A0BDF80610D8
:10952000E06A02EA0902A26051441BF08BF802448F
:109530005A45A2603FF45AAFABEB0603636012E7F3
:109540000000FFFF2DE9F04F1E46037C89B0044662
:1095500089469046002B00F0B280C26A082110466E
:109560001BF070F83146824610461BF06BF8A38959
:10957000A3EB8A039E42074600F2A4801EB1B8F115
:10958000000F00F09F806368039304AA03A920469C
:10959000DDF80CB01BF098F8054600285AD1BDF84C
:1095A00010304B4505D06268039B9A42EDD1DEB97D
:1095B00050E004A920461BF04FF80028F3D0BDF876
:1095C000143086B19E420FD1BDF812004FEA1B4104
:1095D000090401443346424620461AF0B6FF0028EB
:1095E00002DC054636E0ABB3002F37D104F1140A94
:1095F0004FF0FF324FF0FF33504619F085F8DFF897
:10960000CCB0E3899D4257D0D4E90123F9188A42AE
:1096100027D3ADF81A3006A8FF238DF81E30ADF819
:109620001890ADF81C601AF0F9FF3246414620460A
:109630001BF0CEF8034638B906A920461BF0DBF82C
:10964000002814BF034633460193504619F0D4F85E
:10965000019B1D46284609B0BDE8F08F5744BFB2B4
:10966000C4E70821E06A1AF0EDFF4FF6FF73ADF88A
:1096700018300023ADF81C301318ADF81A30A38948
:1096800002EA0B021A44121A626006A81AF0C6FF18
:1096900006A920461BF0AFF8E089211D1AF0C7FF8C
:1096A000636803EA0B03A36020461BF0CAF8034675
:1096B0000028C9D10135A4E76FF01B03C4E76FF0A0
:1096C0000C05C7E76FF01505C4E700BF0000FFFFFA
:1096D0000C4BF0B45F6A0C4E0C4BB34203D36FF0EB
:1096E0008500F0BC70475D68BD4209D31C693CB180
:1096F00095F802C00579AC4502D12346F0BC184765
:109700002433EAE7E03300208410002060100020BA
:109710002DE9F047134CDFF85080DFF850900546F4
:109720000E461746444503D36FF08500BDE8F08729
:109730006268D9F824309A4212D3A36983B1907831
:109740002979884205D13A4631462846BDE8F04796
:1097500018475279012A03D13A463146284698479C
:109760002434DFE76010002084100020E033002064
:109770002DE9F0410B4CDFF8308005460E461746C8
:10978000444502D36FF0850009E063690BB92434C6
:10979000F6E73A463146284698470028F7D1BDE813
:1097A000F08100BF601000208410002007B583788E
:1097B0008DF800300379427943EA0223ADF8023094
:1097C000C378684603F003038DF8043015F0A0F960
:1097D00010F1780F04D018B1002003B05DF804FB3D
:1097E0009DF8000015F01AFA10F1780F01D000284A
:1097F000F2D1024B012083F8B900EEE7E0330020FC
:109800000248082200211CF097BC00BF9B340020B6
:1098100070B50B4B0B4CA34201D3002070BD196AED
:109820001E7F00220439D5B2AE4201D82433F2E7BC
:10983000013211F832508542F5D10120EEE700BF28
:109840006010002084100020094808B50378C3F395
:1098500041130A3350F823303BB100F1080200F104
:1098600010019847C043C00F08BD1846FCE700BF71
:10987000E033002004282DE9F047DFF88880044613
:109880000E460ED1FFF7BCFFDFF87C9099F8B93097
:109890005BB100F01FFD042C01D0012C05D11B4D44
:1098A00016E00528F0D00128EED0184D45451ED30E
:1098B000154B1B6A1BB331462046BDE8F0471847DD
:1098C000D5F820A000272A7FFBB29A4203D824357E
:1098D0004545F5D307E00AEBC3030137187915F0C6
:1098E000C7F90028EFDA002389F8B930DDE7EB6823
:1098F0001BB132462146284698472435D6E7BDE8B5
:10990000F08700BF84100020E033002060100020AA
:1099100073B5C4B263060D468DF8074007D02046E4
:10992000FFF776FF88B10F4B93F8BA0068B10D4E80
:10993000204665B115F00EF9F3690BB9012004E07A
:1099400008200DF107019847284602B070BD15F0B8
:1099500029F9F369002BF1D00DF10701092098478F
:10996000ECE700BFE03300202DE9F047A84EB369D3
:1099700005460F46904663B9287800F01F0001287D
:1099800000F0A680022800F00E8138B16FF01500BB
:1099900095E098470028EFD1002090E095F900204D
:1099A0006B78002A31DA062BD8F8002010D0082B6B
:1099B00025D0002BEAD101215370117096F8C31005
:1099C000002918BF022343F00103137002231AE099
:1099D0006B881A0A111F0129D8D9072AD6D8D9B2FB
:1099E000736A1C78002CD1D05D78954203D18142F6
:1099F00000F0128101302344F3E71B7812E196F85E
:109A0000BA30137001233B6059E0013B082BBDD8ED
:109A100001A252F823F000BFB19A02008D99020012
:109A2000C39A02008D9902003D9A02008D990200AE
:109A30008D9902008D990200499A0200A87815F0CC
:109A400055F80028A8D0A1E76C8844B14FF0FF0872
:109A5000776A0020C1463C786CB9002896D0FFF7A1
:109A6000CFFE6B8886F8BA30F369002B94D0694931
:109A70000320984790E77B78042B0CD0052B0DD062
:109A8000022B05D197F805806A88424508BF01205E
:109A90003B781F44DFE797F80390F9E76B8843456D
:109AA000F6D1B9F1000FF3D13846FFF77FFEEFE7AB
:109AB0006B88012B7FF46AAF002086F8C300BDE8F5
:109AC000F0876B88012B7FF461AF86F8C33063E7C2
:109AD00096F8BA30002B3FF459AF746AB5F804C059
:109AE000287923461A78002A3FF450AF5978022982
:109AF00004D193F804E0864500F296801344F1E720
:109B0000107050703960DAE70C449BE00B287FF44A
:109B10003DAF00274FF0FF0AD046B94606E0637814
:109B2000042B0FD0052B22D023781C442378002B44
:109B3000F5D1F36913B1494607209847002F7FF408
:109B40002BAF23E794F802A0AA8894F803809245EB
:109B50005346E9D1698888451FFA88F2E4D1072B7A
:109B60001ED83344A14683F8BB200127DCE7AB882D
:109B70005345D9D1AB7843450DD0A778384600F08E
:109B80008BFB384615F074F810F1780FEDD0B0FA71
:109B900080F77F09C8E72046FFF708FE0746C3E7BE
:109BA000A1460027C0E795F900206B78002A19DA52
:109BB000002B7FF4EBAE2C7963060AD02046FFF72A
:109BC00027FE00283FF4E2AE96F8BA30002B3FF4AF
:109BD000DDAED8F800502046294615F003F80020E5
:109BE0006870F3E6012B08D0032B7FF4CFAE6B88AF
:109BF000002B7FF4CBAE012103E0698800297FF4BC
:109C0000C5AEA888FFF784FE00287FF4C5AEBDE688
:109C1000E03300209A340020022AC8F800307FF494
:109C2000ECAE5B883B60B7E695F900306878002BB6
:109C3000BFF66CAFD8F8002000283FF461AF0A28C7
:109C40007FF4A4AE217800293FF4A0AE6378042B02
:109C50007FF45AAFA3789C457FF456AF072B96BF8D
:109C60009B19002393F8BB3013700123DAE700BF80
:109C700013B5134C237DCBB9E268A168019201AB07
:109C800080201AF0F5FE019AA3681344A360E368EC
:109C90009B1AE36043B93AB12369E2889A4203DD33
:109CA0009B0601D10123237502B010BD00231A4683
:109CB00019468020237502B0BDE8104014F0FEBFA5
:109CC000E033002030B585B0002302460D460193F5
:109CD00000285FD100293CD108220B460DEB020180
:109CE0001FF06BFA002804DA802014F033FF05B06F
:109CF00030BD2D4C9DF809309DF808206370BDF8EB
:109D00000A306380BDF80C302270A38004F1380162
:109D1000BDF80E30E3801206C4E90355A160257535
:109D20000AD4802B04D9802014F014FF0020DCE733
:109D300013B1C4E90333DAE7FFF786FD0028D3D077
:109D4000E28823699A42D4BFE260E360FFF790FFA4
:109D5000CDE7154CD4E90215002D01AB04DC1FF052
:109D60002CFA0028C3DABFE72A461FF026FA00289B
:109D7000D9DB0199A268E3680A445B1AA260E36038
:109D8000002BB4D104F13803A360FFF75DFD002878
:109D9000DCD1A9E78028AAD1034BDA68002AD5D103
:109DA0001B7D002BD2D1A2E7E0330020044B93F8B7
:109DB000C3300BB11FF010BA6FF00C00704700BF3A
:109DC000E0330020054B064A9A62064ADA62064AE8
:109DD0001A63064A58629A6100207047E0330020F7
:109DE00069990200D1960200719702001197020052
:109DF000084B10B593F8B84034B900F0A3F930B16E
:109E0000FFF7E0FF204610BD6FF07700FBE74FF053
:109E1000FF30F8E7E03300202DE9F3410446354DEB
:109E200035484FF0FF324FF0FF3318F06DFC95F8D6
:109E3000B860002E5BD131482C62E86115F054F80F
:109E400014F016FE041E36DB00F06CFA041E32DB42
:109E500040236846ADF802308DF804608DF800604C
:109E600014F056FE041E26DB802768468DF800702D
:109E700014F04EFE041E1EDB2149304615F020F87A
:109E8000041E18DB1E49384615F01AF8041E12DBB2
:109E90001C4CDFF87480444514D3002014F0BEFE3F
:109EA000041E08DB802014F0B9FE041E03DB01232E
:109EB00085F8B8300024104818F09EFC204602B007
:109EC000BDE8F081276A0026227FF3B29A4201D8CA
:109ED0002434E0E707EBC30257F83310107914F08D
:109EE000EFFF01360028EFD04FF0FF34E3E76FF0CB
:109EF0007704E0E7E0330020780D00207598020039
:109F0000C59C0200601000208410002030B51F4B5B
:109F10008BB005AA03F1100518685968144603C4EC
:109F20000833AB422246F7D11B7823701022002160
:109F300001A81CF001F91222002115481CF0FCF8C0
:109F4000102101A81FF04BFA00281BDD0828B8BF1C
:109F50000820083801AB0E4A1844002110F8013BD4
:109F60000AAC04EB131403F00F0314F8144C147030
:109F70000AAC2344013113F8143C5370082902F150
:109F80000202EBD102480BB030BD00BF0EC7040087
:109F9000995C00202DE9F04F044685B000254FF074
:109FA000011BA9462E46AA46207820B9614B0234EF
:109FB0009C421FD0F2E76378052B05D8DFE803F059
:109FC000780403780720A24623781C44ECE7E37862
:109FD000002BF9D1A37883B109F101095FFA89F95E
:109FE000F2E77268944200F09D8024369E42F8D3D6
:109FF0004FF0FF3005B0BDE8F08F4F4E4F4BF5E707
:10A00000002EF5D000230121327F9342F0D2326A34
:10A01000A77802EBC3021079874201D00133F3E73E
:10A020000127E07894F805C000F003008DF80C00DB
:10A03000207940EA0C20ADF80A0094F902000028CB
:10A040005FFA87F828DA07F1100001FA00F010EA49
:10A050000B0F29D168F07F008DF8080002A8CDE928
:10A0600000321FF092F8DDE900320121E0B99DF8DD
:10A070000830A37013F0800F1CBF08F110085FFABE
:10A0800088F813710B4615BF01FA08F8BB404BEA7C
:10A09000080B4BEA030B97E701FA07F010EA0B0FE6
:10A0A00002D18DF80880D9E70137102FB9D1B5E773
:10A0B000032D1DD1FFF72AFF074668B11BF0FCFFF7
:10A0C000804648B11E481BF0F7FF804504D1424648
:10A0D0003946A01C1CF025F823786FF00201E21825
:10A0E000091B04EB5303D14213D50135EDB26BE7E5
:10A0F000002DF1D1BAF1000F3FF47AAFA4EB0A03BF
:10A100008AF80230C3F307238AF803308AF80490F0
:10A11000EBE74FF0000002F8010C13F8010902F818
:10A12000020DE0E7B368002B3FF456AF49462046E6
:10A13000984751E75E100020601000208410002036
:10A140000EC7040008B50448FFF724FF00280248A2
:10A1500018BF002008BD00BFCC0F002010B5094B70
:10A1600000211A461C78844205D15C681CB1482045
:10A1700000FB012010BD0131042903F14803F1D196
:10A180000020F7E7A43400202DE9F34150F8303CDB
:10A1900010F8346C1033044610D1036950F8282CA1
:10A1A00099073CD502BB13F0040304D11A461946A3
:10A1B00030461AF05DFC002344F8303C54F8303C43
:10A1C00010330ED054F8205C5DB154F8247C54F860
:10A1D0001C8C1FF0BCFD00284CD02E4821461FF0DF
:10A1E0002DFF02B0BDE8F08150F82C1C01AB3046C9
:10A1F0001AF03EFC10B16FF01503DDE7019A54F838
:10A200002C3C134444F82C3C54F8283C9B1A44F84A
:10A21000283C54F8243C134444F8243CCEE750F83E
:10A220002C1C01AB304614F0C1FD0028E3D1019D88
:10A2300054F82C3C2B4444F82C3C54F8283C5B1B31
:10A2400044F8283C54F8243C2B4444F8243C002D8A
:10A25000B1D0304614F04EFEB5FBF0F303FB1055C1
:10A26000002DA8D154F8283C002BA4D0304614F07F
:10A27000E5FDA3E744F8200CA4F1180018F032FB28
:10A2800054F8303C8C33ACD0424639463046A8476F
:10A29000A7E700BFF032002010B54FF02003EFF326
:10A2A000118483F31288BFF36F8FFFF757FF50B10C
:10A2B0004368103307D16FF08B03436000F1340122
:10A2C00003481FF0BBFE84F31188BFF36F8F10BDEE
:10A2D000F03200202DE9F041104CDFF844800425D5
:10A2E0006FF08B074FF02003EFF3118683F3128892
:10A2F000BFF36F8F6368103305D104F1340140461A
:10A3000067601FF09BFE86F31188BFF36F8F013DDE
:10A3100004F14804E6D1BDE8F08100BFA434002078
:10A32000F032002070B50A4C0A4E00253146204616
:10A330001FF07BFE0122A4F11800114601351FF029
:10A34000F4FD042D04F14804F0D1002070BD00BFDD
:10A35000D834002089A102000C4B1B6870B573B182
:10A360000B4A15680022AA4202DB6FF0010070BDA3
:10A370001C4613F8106B864204D00132F3E76FF0ED
:10A380000C00F4E70C600020F1E700BF6804002037
:10A390001CB0040070B588B005460C46C0B26946D2
:10A3A0001646FFF7D9FF00281FDB009BEBB15A6868
:10A3B00002929A682168D8680195CDE903260022A7
:10A3C000CDE90612059217F0C5FE054600981AF071
:10A3D00097FB6DB12846084901AA1FF09DF8079820
:10A3E00008B9059B236008B070BD6FF01500FAE74F
:10A3F0006FF01200F7E700BF034B0400104B2DE98C
:10A40000F0411C6805460E461746ACB14FF0FF32CE
:10A410004FF0FF330B4818F077F963683246D3F8F2
:10A42000088029463B462046C0470446054818F0A8
:10A43000E3F92046BDE8F0816FF00104F9E700BFC1
:10A44000CC350020640D002000230360044B5A68C3
:10A4500012B9C3E90000704710605860704700BF30
:10A46000C4350020014B1860704700BFCC35002078
:10A4700030B585B000230546CDE9023301904FF099
:10A48000FF330C484FF0FF3218F03EF90A4B1C68BE
:10A4900034B1636820461B6801A998472468F7E730
:10A4A000284600F0C1F80446024818F0A5F92046F5
:10A4B00005B030BD640D0020C43500201FB5CDE9C6
:10A4C000010103924FF0FF330A484FF0FF3218F0BA
:10A4D0001BF9094B1C6834B1636820461B6801A94D
:10A4E00098472468F7E7034818F086F9002004B07D
:10A4F00010BD00BF640D0020C4350020024B0022B7
:10A50000C3E90022704700BFC4350020024B00227F
:10A51000C3E90022FFF7F2BFD035002070B51B4C15
:10A520001B4E0546B44212D31A4E1B484FF0FF3261
:10A530004FF0FF3318F0E8F834687CB1286854F81D
:10A54000141C143C1BF0BFFDC8B16469F5E7216819
:10A5500028681BF0B8FDA8B11434E3E77268002442
:10A5600005F114036C613AB9C6E9003314460A4890
:10A5700018F042F9204670BD13607360F7E76FF082
:10A580001004F4E76FF01004F4E700BF64AB0400BC
:10A59000DCAB0400D0350020640D00202DE9F34130
:10A5A00007460E4609B100230B601C4CDFF8708093
:10A5B0000025444510D31B4B1C685CB301AA3846E8
:10A5C00054F8141C143C1AF0BEFA08B3CDB90EB1FD
:10A5D000019B336025461BE0216801AA38461AF02A
:10A5E000B2FA60B125B90EB1019B3360254606E091
:10A5F0002968206800221AF0A6FA0028F3D1143442
:10A60000D7E72968206800221AF09DFA0028DED1D9
:10A610006469D2E7284602B0BDE8F08164AB04006B
:10A62000DCAB0400D0350020F8B5184C184F0646B6
:10A630000025BC4208D3174B1C6824B3143CAEB9A8
:10A64000E368DBB96469F8E71EB9E3684BB9143411
:10A65000EFE72068002231461AF075FA0028F4D19D
:10A66000F5E79847002D08BF0546F0E7206800226F
:10A6700031461AF068FA0028E2D1E3E79847002D46
:10A6800008BF0546DEE72846F8BD00BF64AB0400FE
:10A69000DCAB0400D035002010B5064C23783BB964
:10A6A000FFF734FF00F064F808B90123237010BDF0
:10A6B0000020FCE7AB5C00202DE9F047048FDFF8B9
:10A6C000ACA0013498B080468946A4B200F10806D7
:10A6D000651EADB2B5F5004F45D04A2305AA2946FF
:10A6E00030461AF0BEF904F57F543F34A4B2074651
:10A6F000214601230DF10B0230461AF0B2F9002F6A
:10A70000014603DC002803DC2C46E1E7002816DCC8
:10A71000B8F83830AB4209D142466B1E22F8383FB8
:10A720004FF4004102233046FEF70CFF2946304625
:10A730001AF03CF9214630461AF038F9E4E718AB34
:10A740001F44002307F84C3C5246CDF8009003AB61
:10A7500005A80396ADF810401AF02EFA0028D3D0C1
:10A7600018B0BDE8F0870020FAE700BF1F4C0400D6
:10A770007FB50123694602200193FFF7EDFD0446F2
:10A78000002836D102AA01A90220FFF703FE10F12A
:10A79000130F04462DD038B10C3405D0404080F35F
:10A7A00011884FF0040002DF0399B1F5803F23D2F6
:10A7B000009A002395681846084485429CB203D34A
:10A7C0000133082BF8D11C460D4D5368AB60284669
:10A7D000D368EC82A982EB631AF0B8FA044640B958
:10A7E000084E6E602846FFF72FFE28466E60FFF782
:10A7F00039FE204604B070BD6FF02004F9E700BFB9
:10A80000D83500206C0400202DE9F84305464FF0B0
:10A810002003EFF3118683F31288BFF36F8F0E4B83
:10A820001C689CB10D4FDFF838804FF00C09D4E95B
:10A830000132002D08BF13462BB198F8142009FBF4
:10A8400002F2B85C98472468002CF0D186F3118896
:10A85000BFF36F8FBDE8F883183600202036002044
:10A86000545B00204209012300F01F0003FA00F0AE
:10A87000074BBFF35B8FC04303EB820353E8002F0A
:10A88000024043E800210029F8D1BFF35B8F7047F5
:10A890002C36002030B51D4B1C7DBFF35B8F04F0C0
:10A8A0001F0301229A401A4B610985B0D04303EB84
:10A8B000810353E8001F01EA000543E8005CBCF196
:10A8C000000FF6D1BFF35B8F114217D0114D0C2250
:10A8D00002FB045207CA01AB83E807000E4A7AB1B3
:10A8E00093E807001BF051FC0020FFF78DFF0C23BD
:10A8F0005C432A1900232B51C2E9013305B030BD56
:10A9000082F31188BFF36F8FEEE700BF545B002026
:10A9100030360020203600208B6104002DE9F04302
:10A92000354B364A1C7DBFF35B8F63094FEA8309C1
:10A9300052F82330324DBFF35B8F04F01F0843FA07
:10A9400008F313F0010F85B007460AD101462046EF
:10A9500000F076F828B107C80C2303FB045383E802
:10A9600007000C236343EA18EE5C36B92046FFF774
:10A9700079FF304605B0BDE8F0837B1C0FD0D2F8DC
:10A9800008C02048204A4FF4004600210023ECFB79
:10A990000601FBF7B5FB0121381A1FF0EFFC18F098
:10A9A00007FA0120FFF730FFBFF35B8F012303FAA3
:10A9B00008F8164B994459E8003F43EA080349E870
:10A9C0000032002AF7D1BFF35B8F0C2303FB045541
:10A9D00095E8070001AB83E807000D4A1AB193E838
:10A9E00007001BF0BFFBFFF755FF2046FFF73AFFBC
:10A9F00018F0ACFB0120BDE7545B00202C36002092
:10AA0000203600203F420F0040420F003036002029
:10AA100065610400054BBFF35B8F53F82000BFF363
:10AA20005B8FB0FA80F04009704700BF34360020D9
:10AA300008B9024B0B600020704700BF20B0040033
:10AA40002DE9F04F85B00E4603A9FFF7F1FFDFF8BF
:10AA500074A0DFF87480441E24B24FF400474FF016
:10AA60000009631C04D10025284605B0BDE8F08F1D
:10AA7000039A04EB440302EB830512F82300FFF76B
:10AA8000C9FFE0B168684FF0000BD4465946E0FBBF
:10AA900007C142464B466046FBF732FB0190A8686F
:10AAA000D4465946E0FB07C142464B466046FBF799
:10AAB00027FB721CD8D0019B1844B042D4D9013C6A
:10AAC00024B2CEE73F420F0040420F00014B18680E
:10AAD000704700BF7C040020F0B5082289B01AF04E
:10AAE000FFFACB6A03930B6B04934B6B05938B6B51
:10AAF0000693CB6B079313466A460C46064600271F
:10AB000011461046CDE9017700971AF0FFF931465A
:10AB1000054630461AF0FAF9216B0391616B0491F6
:10AB2000A16B0591E16B0544CDE90617104611466E
:10AB30001AF0ECF93146054430461AF0E7F90544BD
:10AB4000206A0090606A0190A06A0290A06B069053
:10AB5000E06B07903046CDE9047703971AF0D6F9F9
:10AB60000544606A0090A06AD4F838C00190E06A99
:10AB70000290CDF810C0606BD4F83CC00390CDE9D2
:10AB800005C0206A079030461AF0C0F90544E06A13
:10AB90000090206B0190606B0290206A0690A06A82
:10ABA00007903046CDE9047703971AF0CCFA236B6F
:10ABB0000093636B0193A36B0293E36B0393636A4C
:10ABC0000693E36A07932D1A08233046CDE90477EC
:10ABD0001AF0B9FA636B0093A36B0193E36B0293D2
:10ABE000236A0393636A0493A36ACDE90537236B51
:10ABF00007932D1A082330461AF0A5FAA36B009389
:10AC0000E36BCDE90137636A0393A36A0493E36AB4
:10AC1000CDE90537636B07932D1A082330461AF0E8
:10AC200092FA2D1A10D40D4C35B90822314620461F
:10AC30001AF062FA01280FD0082322463146304626
:10AC40001AF081FA2D1AEFE7044A082331463046FC
:10AC50001AF05CF92D18F8D409B0F0BD24B0040046
:10AC60000449431E0F3013F8012F8A5C1A70834287
:10AC7000F9D1704732C70400F0B5264E07460C469E
:10AC80000FCE8DB001AD0FC50FCE0FC596E80700F2
:10AC900085E807003846002F38D0002C38D0381F00
:10ACA0002146024610344B780D781B0443EA0563B5
:10ACB000CD782B438D78043143EA05238C4242F84A
:10ACC000043FF0D1144C04218A07036916D1C3F361
:10ACD0000742A55C1A0EA25C42EA0562C3F307258F
:10ACE000DBB2655DE35C42EA054242EA03220CAD59
:10ACF00021F003032B4453F82C3C534050F8042F0D
:10AD0000013153402C290361DED101200DB0F0BD8B
:10AD10002046FBE754AC040032C70400014910226E
:10AD20000A60704710ED00E072B6404080F3118871
:10AD3000BFF36F8FBFF34F8F30BF62B6BFF36F8F1C
:10AD4000704700BF72B6494081F3118820BF80F37D
:10AD5000118862B6704700BF43B2002B08DB0122A6
:10AD600000F01F0002FA00F05B09024A42F82300DB
:10AD7000704700BF00E100E043B2002B0DDB012271
:10AD80005B0900F01F0002FA00F02033034A42F88A
:10AD90002300BFF34F8FBFF36F8F704700E100E0D8
:10ADA000054B420900F01F0053F82220012303FA4B
:10ADB00000F01040704700BF00E100E043B2002BFC
:10ADC000A8BF03F1604301F10101B8BF064B4FEA90
:10ADD0004111ACBF03F5614300F00F00C9B2B4BF2D
:10ADE000195483F80013704714ED00E008B572B6EB
:10ADF000044B9A691AB100229A611EF0B3FF62B641
:10AE000008BD00BF545B002030BFFFF7FDBF00BF8F
:10AE10000F4A08B50F4B22F07F029A60BFF34F8FA5
:10AE2000BFF36F8FD3F8882022F47002C3F8882014
:10AE3000EFF3148323F0040383F31488BFF36F8FBD
:10AE400017F0FCF918F0C6FA00F094F917F000FAC0
:10AE50000060020000ED00E0094A0A4993680968B1
:10AE6000D967094998674B6843F080534B600023CA
:10AE700083F31188BFF36F8F9368D86F704700BF5B
:10AE8000545B0020C0C3040000ED00E00F498A6855
:10AE90004FF030001044EFF3098C80E8F01F2020C1
:10AEA00080F31288BFF36F8F094F4FF00066CA69B5
:10AEB0008A603E60906F0023936780F3118802F1EF
:10AEC000300090E8F01F8CF309887047545B002035
:10AED00004ED00E01EF0040F0CBFEFF30880EFF369
:10AEE0000980816911F8021C0229FFD001B51BF00D
:10AEF00051F801BD42F8203C009B42F81C3C0A4935
:10AF0000019B42F8183C029B42F8143C21F00101DD
:10AF10004FF0807342F8043C42F8081C0023203AAA
:10AF200002658367704700BF53410400074B986078
:10AF3000104681F30988002163B681F31188BFF3BD
:10AF40006F8F0022002319F004F900BF545B00202A
:10AF500001B572B60B4A906900281EBF00219161AD
:10AF60001EF000FF62B6EFF30580A0F110004FEA7B
:10AF7000C0000549014409C99847BDE8014003499B
:10AF800008470000545B002098A9040091AF02001C
:10AF9000044B9968D869884203D003494FF0805226
:10AFA0000A607047545B002004ED00E00D4B9A6A84
:10AFB0009A6A9A6A920508D59A6B9A6A120404D51D
:10AFC00018B19A6A22F400429A62064B9A6A9A6A07
:10AFD000D20558BF9A6A9A6A002042F47F429A6268
:10AFE0000870704700ED00E00E4B9A6A9A6A9A6A00
:10AFF000920708D55A6B9A6A120604D518B19A6A54
:10B0000022F080029A62074B9A6A9A6A9A6AD2067A
:10B0100058BF9A6A9A6A002042F0FF029A6208704A
:10B02000704700BF00ED00E070B5484B5B688AB028
:10B030000E46C3F30803002585F31188BFF36F8F15
:10B0400002F07F41B1F17F4F11D102F00C010829CC
:10B050000DD0110701D4064601250022033B8DF8CF
:10B060000720032B6AD8DFE803F00454585C2E460F
:10B07000F3E7364BDC6A14F002045FD1DA6A002A87
:10B0800014DBDA6A520011D5B26932F8021C4DF6AF
:10B090000272914209D093F8282002B30DF1070102
:10B0A0000120FFF7A1FF044600E034689DF8073057
:10B0B0009BB92022314602A81BF033F8099B002DD2
:10B0C0003ED0C3F3080222B96FEA53236FEA432349
:10B0D000099302A920461AF05BFF0AB070BD93F8ED
:10B0E00029202AB10DF107010120FFF75FFFDAE700
:10B0F0005A8D92B2002AD9D09A6A9A6A9A6A9A6A42
:10B100009A6A9A6A9A6A6FEA02426FEA12429A62ED
:10B11000CCE70DF107010020C3E70DF10701002086
:10B12000E3E70A4B9A6A9A6A9A6A9A6A9A6A9A6AE8
:10B130009A6A6FEA02426FEA12429A620024B5E705
:10B1400023F4FF7323F00103C2E700BF00ED00E02A
:10B15000024A536943F010035361704700ED00E069
:10B16000EFF30880EFF3098101B57246FFF75CFF4A
:10B1700001BD00BF044800232021C2180133302B39
:10B1800082F80013F9D1704700E100E01FF0CEFA19
:10B19000202080F3118808484FF40061401880F3A4
:10B1A0000988EFF314800221084380F31488BFF369
:10B1B0006F8FFFF72DFE000060800020064B9B681C
:10B1C000834207D1EFF3058323B1044A536843F068
:10B1D0008053536018F09AB8545B002000ED00E0F3
:10B1E000024B034A0348012100F05EB8000004202E
:10B1F00000000020D0B00400F0B51F4F00268E42A2
:10B2000001DB1046F0BD44689CB353B104F1FF3C30
:10B2100014EA0C0F18D11F2C16D905681CEA050F6B
:10B2200012D1202C0568D0F808C0D2B20FD9B4F1E1
:10B23000004F0ED8013CB4FA84F4C4F11F0464003A
:10B24000072A4CEA040406D96FF01502D9E708244E
:10B25000F6E73E24F4E725F01F05154345F01005F9
:10B2600044F00104C7F89820C7F89C500132C7F891
:10B27000A04001360C30C2E700ED00E0044B05228F
:10B28000C3F89420BFF34F8FBFF36F8F704700BF99
:10B2900000ED00E0BFF35F8F024B0022C3F8942063
:10B2A000704700BF00ED00E010B5034C0123227889
:10B2B000FFF7A2FF207010BDAC5C002014490868A5
:10B2C000082810B521D8FFF7E5FF124C4968002285
:10B2D000904201F10C0105D10F4B1870FFF7CEFF22
:10B2E000002010BDC4F8982051F80C3C23F01F0337
:10B2F000134343F01003C4F89C3051F8043C43F06E
:10B300000103C4F8A0300132E2E74FF0FF30E8E774
:10B31000DCB0040000ED00E0AC5C00200CB41FB514
:10B3200009B90DF10300CDE9020107AB069A064801
:10B33000019302A9FDF7EAFC029B00221A7005B0F6
:10B340005DF804EB02B070474B6104000EB40FB51A
:10B3500005AB6FF0004153F8042B029003910648AF
:10B36000019302A9FDF7D2FC029B00221A7004B0DF
:10B370005DF804EB03B070474B6104004FF020030D
:10B38000EFF3118283F31288BFF36F8F0649012315
:10B39000C1F840354FF08041C1F8783582F311880B
:10B3A000BFF36F8F0020704700E001404FF08043F3
:10B3B000C0B2C3F81C05BFF34F8F0549054BCA68DF
:10B3C00002F4E0621343CB60BFF34F8F00BFFDE791
:10B3D00000ED00E00400FA0520B1034B800143F0CA
:10B3E00001031847704700BFE0AC040070B5214C62
:10B3F000BFF35B8F2368BFF35B8FDA0706460D460A
:10B4000001D50C2070BD012931D8BFF35B8F54E802
:10B41000003F43F0020244E800210029F7D1BFF3C6
:10B420005B8F9B07EDD4144831461AF024FF134874
:10B4300006F120011AF01FFFBFF35B8F75B154E8CE
:10B44000003F43F0040344E80032002AF7D1BFF381
:10B450005B8F0B4817F046FA0020D3E754E8003F13
:10B4600023F0040344E80032002AF0D0F6E712206B
:10B47000C8E700BF50360020CD5C0020ED5C002006
:10B480001C0E00202DE9F843604FDFF884813E4612
:10B490004FF0FF324FF0FF33404617F049FABFF349
:10B4A0005B8F3C68BFF35B8F14F0010455D0DFF86D
:10B4B0006491594C594D5A484A46214619F07AFC34
:10B4C00000283ED02022294620461AF019FE0028E6
:10B4D000F1D04FF000094FF0FF324FF0FF33012061
:10B4E00000F00EFA00F108050221044628461DF07E
:10B4F000D4FD3E23037042234370012128461DF0F2
:10B50000CCFD08230370412128461DF0C6FD0546E9
:10B5100000F8019BB9F1000F16D0402200211AF06B
:10B520000BFEBFF35B8F56E8003F23F0010346E8B4
:10B530000032002AF7D1BFF35B8F204600F084FE73
:10B54000A6E74FF01F09C6E735491AF094FE2031EF
:10B5500005F121001AF08FFEE3E7BFF35B8F3B6834
:10B56000BFF35B8F9B0793D52A492D481AF0DBFA6E
:10B57000002811DBBFF35B8F3B6827492748BFF3E7
:10B580005B8F13F0040F01F12002224B18BF01461C
:10B59000104619F05EFC04464FF0FF324FF0FF33C7
:10B5A000012000F0ADF900F10809022105464846E6
:10B5B0001DF073FD3E230370222343700121484692
:10B5C0001DF06BFD09230370212148461DF065FD28
:10B5D000034601309CB91F221A70FF2120221AF065
:10B5E000ABFDBFF35B8F56E8003F23F0020346E854
:10B5F0000032002AF7D1BFF35B8F28469EE7002276
:10B6000007491A701AF037FEEBE700BF50360020EA
:10B610001C0E0020FCB00400AD5C002048C80400F3
:10B62000CD5C002070B5067D044676B983681D8820
:10B6300042F22602954245D00FD842F201029542CD
:10B640004FD042F225039D4213D02A4BD3F85431F8
:10B6500020461B69BDE87040184742F25E039D42D8
:10B66000F3D1032108301DF037FDA06890F8401099
:10B670002EE0032108301DF02FFD204612F0AEFD14
:10B68000BFF35B8F1C4B1A68BFF35B8F920707D524
:10B690000C26314642F225001AF0C9FD002070BD8B
:10B6A000BFF35B8F53E8002F42F0010143E8001025
:10B6B0000028F7D1BFF35B8FD307E9D40F4817F009
:10B6C00011F9E6E7032108301DF006FDA0683146B8
:10B6D000FFF78CFE0646204612F080FD31462846D4
:10B6E000DAE7DA7802F07F02DA701A7922F00102E2
:10B6F0001A71AAE700000020503600201C0E00201E
:10B7000010B588B00C4C0D4900220023CDE906236A
:10B7100000230A22CDE90323CDE9013300934FF43E
:10B720008F62074B204616F09BFE0649204608B064
:10B73000BDE810401EF011BBB8110020685F00206A
:10B7400085B4020041C8040003490448CA79C2EB29
:10B75000C202FEF753BE00BF0000002068C804000C
:10B76000F7B516461F46044620B96FF0010420467F
:10B7700003B0F0BD01A919F009FA114902462046AB
:10B780001AF0ADFC04460028EFD1BFF35B8F0D4DDE
:10B790002B68BFF35B8F5B07E9D4CC3D07222946BA
:10B7A0003846B047062806D80722214628461AF010
:10B7B000C3FCEC71DBE70723B0FBF3F0E871D6E7DD
:10B7C00079C50400CC0000202DE9F04188B09C79B7
:10B7D000DDF838805D791E79DF7893F802C093F840
:10B7E00001E01B78B8F1000F0ED0CDE90638CDE9A5
:10B7F00004CE1346CDE90267CDE90045084A18F0AA
:10B8000095FB08B0BDE8F081CDE905E3CDE9037C07
:10B810001346CDE90156034A009418F087FBF0E780
:10B820006EC8040092C80400014817F0C7B900BFF1
:10B830008004002010B5154CE379E3B1BFF35B8FB2
:10B84000134C2368BFF35B8F9B0701D400F0B2FD5C
:10B85000BFF35B8F54E8000F20F4804344E80032CC
:10B86000002AF7D1BFF35B8F10F480400DD0FFF7B3
:10B87000DBFF002009E001F041F830B9E379002B4B
:10B88000DCD101F07BF80028D8D010BD00000020EA
:10B89000CC00002030B4034608461A78012A13D0A1
:10B8A000022A26D072B9154A02F1100452F8045B3C
:10B8B00041F8045BA242F9D15B8812780A704373A5
:10B8C0001B0A837330BC70470C4A02F1100452F813
:10B8D000045B41F8045BA242F9D15B6812780A70FC
:10B8E000C3F3072243731B0CC3731B0A82730374D5
:10B8F000E8E730BC112219461AF013BCB3C80400A3
:10B9000038B5054605481DF066FB044620B1002108
:10B9100008301DF07FFB2575204638BD740F0020D0
:10B920000B460B490246D1F8380110B520B9BDE8E5
:10B9300010400120FFF7E4BF1DF07DFB0123002133
:10B9400003758181044608301DF064FB204610BD5C
:10B950000000002070B504460F2C0D461046194615
:10B9600005D80D2C12D9BDE87040FFF7D9BF132CB4
:10B970000CD10B481DF02FFB044628B100210830E4
:10B980001DF048FB01232375204670BD02460B467F
:10B990000DB10448EEE7BDE870400120FFF7B0BFED
:10B9A000A00F0020F00E00202DE9F04106460F46C2
:10B9B00001F01AFF0446B0B93946304604F000FFE2
:10B9C000054610B1284604F019FF3946304603F009
:10B9D0003BFE104B1B68DBB15B6ACBB1394630468E
:10B9E000BDE8F04118478378012B4FF0000304BFF6
:10B9F000D0F8B450C0F8B4304FF0130118BF1D4652
:10BA00001BF077FB20461BF02FFB002DDAD1D3E78C
:10BA1000BDE8F0818036002038B583681A789AB97D
:10BA2000B3F80140204601F01BFD054668B96FEAF6
:10BA300004500A4A05236FEA105032F8021B09B974
:10BA400022F8020C013BF8D138BD012101F010FDB4
:10BA50002846BDE838401BF007BB00BF945B0020C0
:10BA600010B50121044608301DF03EFB2146034A73
:10BA70000078BDE810400A231AF0AABCDCB104002B
:10BA800013B50C4C0146052294F8670001F0D0FE76
:10BA900070B9094B18689A8800909B79ADF804201A
:10BAA00094F867008DF806300422694601F0C0FE64
:10BAB00002B010BD000000208EAC0400F8B50746AF
:10BAC00090790E46144612F0C5FA2D4B834255D19B
:10BAD000204612F0C7FA2B4D0C2303FB005043887D
